:100000000C942A000C9447000C9447000C94470071
:100010000C9447000C9447000C9447000C94470044
:100020000C9447000C9447000C9447000C94470034
:100030000C9447000C9447000C9447000C94470024
:100040000C9447000C9447000C9447000C94470014
:100050000C94470011241FBECFE5D8E0DEBFCDBF12
:1000600011E0A0E6B0E0E4EEF9E002C005900D92E8
:10007000AE37B107D9F721E0AEE7B1E001C01D927C
:10008000A438B207E1F70E94CE000C94F0040C945F
:1000900000005D9BFECF8CB980E090E008955F9BEF
:1000A00003C08CB190E008958EEF9FEF0895C29A3F
:1000B00087E893E10197F1F700C0000086E0959A88
:1000C000EFEAF4E03197F1F700C000009598EFEA0D
:1000D000F4E03197F1F700C0000081508111EFCFBB
:1000E00008950E945700C29883E890E00E9416028B
:1000F000C12CD12C7601CAEBD0E00FEC10E05F9B55
:10010000FECF8CB18D30D9F7959A8FEA94E00197A4
:10011000F1F700C0000095988FEA94E00197F1F79D
:1001200000C000009FEFC91AD90AE90AF90A49B3C9
:1001300053B380B320B3B6B21F921F9230E4839FB3
:10014000C00111248827977060E2269F9001112436
:1001500022273870822B932B852B9F938F931F928E
:100160004F93FF92EF92DF92CF92DF93CF930E9453
:1001700002028DB79EB70C960FB6F8949EBF0FBEC5
:100180008DBFB1FC06C01F930F930E9402020F9017
:100190000F9081EF90E00E941602B1CF10BC85E174
:1001A00089B982E08BB986E880BD88E18AB91ABA3C
:1001B0001BBA14BA15BA80EA81BB12BA85E087BBB4
:1001C00088BB80E690E090938301809382019093B6
:1001D00081018093800182ED90E00E9416020E94CE
:1001E00057002FE784E89EE1215080409040E1F7DE
:1001F00000C000001ABA1BBA83EF90E09F938F9360
:100200000E9402020F900F905F9BFECF8CB180374F
:10021000E1F18D30C9F785E087BB88BB1ABA1BBAFC
:1002200014BA15BA82EA81BB12BA8BE091E00E943F
:100230001602C29880E48FBD88E08EBD83E083BD46
:1002400089E185BD0E9457005F9BFECF8CB1813351
:1002500009F4D4C09EEC980F9730B0F7082E000C2C
:10026000990BC297FC01EE0FFF1FE259FF4F20814F
:1002700031813BBD2ABD2EB584589F4FFC01808142
:10028000822B8EBD8EB5C298ACC00E9457008FEFF6
:100290008ABB84BB8EEF81BB87E187BB87E088BBCD
:1002A0005D9BFECF81E68CB95F9BFECF8CB1082EA3
:1002B000000C990B815491095F9BFECF2CB1022E4B
:1002C000000C330B2154310922953295307F3227AF
:1002D000207F3227282B392B5F9BFECF8CB1082E35
:1002E000000C990B81549109982F8827822B932B0E
:1002F0005F9BFECF4CB1042E000C550B41545109AD
:10030000542F44275295507F482B592B41155105A6
:1003100061F180E090E07EE65D9BFECF7CB95F9B63
:10032000FECF6CB185BB22B3237222BB22B3392F1F
:10033000330F330F3C71232B22BB22B3392F330FE2
:10034000330F330F3074232B22BB6BBBC098E0EA12
:10035000EA95F1F7C09AE7E8F3E13197F1F700C0C9
:100360000000019648175907B9F65D9BFECF84E659
:100370008CB91ABA1BBA20E030E04115510581F161
:100380005F9BFECF8CB125BB82B3837282BB82B3ED
:10039000932F990F990F9C71892B82BB82B3932F56
:1003A000990F990F990F9074892B82BBC198F0EA2D
:1003B000FA95F1F789B3C19A5D9BFECF982F9F7094
:1003C000905D9CB982958F70805D5D9BFECF2F5FA5
:1003D0003F4F8CB980EA8A95F1F74217530781F6AF
:1003E000C49A1ABA1BBABF9A88B3805888BB88E0EF
:1003F00092E00197F1F700C00000F6CF1EBC1FBCD1
:100400000E947100B0E0A0E0E8E0F2E00C94C904C2
:10041000FE01359661917191AF01809180019091BB
:1004200081010E944202E2E00C94E5040F931F93C5
:10043000CF93DF93E0918001F0918101238100E06F
:1004400010E021FD0EC00FEF1FEFC801DF91CF912B
:100450001F910F9108950995892B11F00FEF1FEF50
:10046000CE01EC0189916091800170918101DB01E5
:100470001896ED91FC918111EECF8AE00995892BB8
:1004800021F3E1CFAFE0B0E0E8E4F2E00C94B9048E
:100490007C013B018A01DC0117961C921E92169783
:1004A00013968C9181FFBEC19AE0292EFE013196F0
:1004B0004F01D70113969C91F30193FD859193FF12
:1004C00081913F01882309F444C1853239F493FDB9
:1004D000859193FF81913F01853229F4B70190E026
:1004E0000E942B04E6CFB12C412C512CBFE1B51555
:1004F00038F08B3209F188F4803201F1833221F136
:1005000057FC3AC020ED280F2A3040F556FE1FC098
:10051000B29C200D1124B22E06C08D3291F0803392
:1005200079F7689450F8F30193FD859193FF8191D9
:100530003F018111DBCF20C0689451F8689452F8D4
:10054000F2CF689453F8EFCF689454F8ECCF429C04
:10055000200D1124422E689455F8E5CF8E3229F4EF
:1005600056FCF7C0689456F8DECF8C3619F46894C0
:1005700057F8D9CF8836B9F2982F9F7D955493308C
:10058000C0F0833681F18337A1F1833509F05BC078
:10059000D801CD90DD908D016B2D70E056FC02C02E
:1005A0006FEF7FEFC6010E9415045C01689457F855
:1005B0000AC00C5F1F4FEFE3E983AA24A394B12C78
:1005C0006401E89457F853FE29C0342CA114B104F7
:1005D00051F5332009F46DCFB70180E290E00E941D
:1005E0002B043A94F6CFD8018C9189830E5F1F4F6C
:1005F000E4CFF801C190D1908F016B2D70E056FCD3
:1006000002C06FEF7FEFC6010E9420045C01D9CFCA
:10061000B70180E290E00E942B044A944A141B0424
:1006200009F0B0F7D2CFF60157FC859157FE8191C2
:100630006F01B70190E00E942B0431103A94B1E0B1
:10064000AB1AB108C3CF843619F0893609F071C0EE
:10065000F80157FE67C061917191819191918F016D
:10066000E52DEF76DE2E97FF09C090958095709569
:1006700061957F4F8F4F9F4F6894D7F82AE030E005
:10068000A4010E945B04C82EC818AC2C5D2CD6FEB9
:100690000CC0E89450F8CB1440F4D4FE05C0D2FC52
:1006A00003C05D2D5E7E552EAB2C54FE93C0FE0123
:1006B000EC0DF11D8081803309F085C0652D697EC8
:1006C000562E752D7870372E53FC93C050FE8DC07A
:1006D000BC2CA41410F4B40CBA1854FE90C0B7018A
:1006E00080E390E00E942B0452FE07C088E751FC93
:1006F00088E590E0B7010E942B04CB1408F48BC06E
:10070000CA94D12C8FEFC81AD80AC80CD91CD601AC
:100710008E916D01B70190E00E942B048C149D0412
:10072000B1F757CF61917191072E000C880B990B8F
:1007300096CFD52CE894D4F82AE0853729F1F52D09
:10074000F97FDF2E8037A1F058F48835A1F08F367D
:10075000D1F0F701868197812F96E2E10C94D504C0
:100760008837B9F7D4FE02C06894D2F820E10CC0F3
:100770006894D4F8F7CF54FE03C02F2F2660D22EF2
:1007800020E132E002C028E030E0F801D7FE15C0D9
:1007900041915191619171914C875D876E877F87FF
:1007A0008F01A4016C857D858E859F850E945B04E9
:1007B000C82EC818E894D7F868CF81919191AC0100
:1007C00070E060E0E9CF52FC02C0A3947ACFA3941A
:1007D000A39477CF852D867809F473CFF6CFB70130
:1007E00080E290E00E942B04A394A414C0F3312C67
:1007F00074CF342C3A18A41408F46FCFF8CF852D99
:10080000867809F47ACF8BE251FE80E257FC8DE2C4
:10081000B70190E070CFB70180E390E00E942B0415
:10082000BA946BCF8FEF9FEF97CFFC01059061508B
:1008300070400110D8F7809590958E0F9F1F0895F6
:10084000FC016150704001900110D8F7809590959F
:100850008E0F9F1F08950F931F93CF93DF93182F31
:10086000092FEB018B8181FD09C01FEF0FEF812F55
:10087000902FDF91CF911F910F91089582FF14C0A7
:100880002E813F818C819D81281739073CF4E881B6
:10089000F981CF0101969983888310838E819F818E
:1008A00001969F838E83E3CFE885F985812F099593
:1008B000892BA1F3DACFFA01AA27283051F1203190
:1008C00081F1E8946F936E7F6E5F7F4F8F4F9F4FE4
:1008D000AF4FB1E03ED0B4E03CD0670F781F891F26
:1008E0009A1FA11D680F791F8A1F911DA11D6A0FF4
:1008F000711D811D911DA11D20D009F468943F91A7
:100900002AE0269F11243019305D3193DEF6CF01A5
:100910000895462F4770405D4193B3E00FD0C9F76B
:10092000F6CF462F4F70405D4A3318F0495D31FDD8
:100930004052419302D0A9F7EACFB4E0A69597952B
:10094000879577956795BA95C9F700976105710501
:1009500008959B01AC010A2E06945795479537954B
:100960002795BA95C9F7620F731F841F951FA01DA5
:1009700008952F923F924F925F926F927F928F9243
:100980009F92AF92BF92CF92DF92EF92FF920F931E
:100990001F93CF93DF93CDB7DEB7CA1BDB0B0FB628
:1009A000F894DEBF0FBECDBF09942A8839884888E5
:1009B0005F846E847D848C849B84AA84B984C8847B
:1009C000DF80EE80FD800C811B81AA81B981CE0F72
:1009D000D11D0FB6F894DEBF0FBECDBFED01089557
:0409E000F894FFCFB9
:1009E400000000030000000049004F000000083D23
:1009F40019060F27E703630009000600030301013A
:100A04000101010D0A456E74657265642073797382
:100A140074656D2064656275676765720D0A50724E
:100A240065737320456E74657220746F2073696EEC
:100A3400676C652D737465700D002530346C78090E
:100A44002530326420253034642025303164002080
:100A540052005369676E65746963732032363530AA
:100A6400206D6963726F636F6D7075746572207643
:100A7400310D00507265737320456E746572207475
:100A84006F20636F6E74696E7565000D0A53656C33
:100A9400656374204350552073706565640D0A3195
:100AA400292053696E676C6520737465702028640F
:100AB40065627567290D0A3229203130487A0D0A9A
:100AC400332920313030487A0D0A342920314B48FB
:100AD4007A0D0A35292031304B487A0D0A362920FF
:100AE4003130304B487A0D0A372920314D487A0D80
:0E0AF4000A382920312E34324D487A0D000088
:00000001FF
